{
  "_format": "hh-sol-artifact-1",
  "contractName": "RelayMock",
  "sourceName": "contracts/test-purposes/RelayMock.sol",
  "abi": [
    {
      "constant": false,
      "inputs": [
        {
          "internalType": "contract LightGeneralizedTCR",
          "name": "_gtcr",
          "type": "address"
        },
        {
          "internalType": "string",
          "name": "_itemData",
          "type": "string"
        }
      ],
      "name": "add",
      "outputs": [],
      "payable": false,
      "stateMutability": "nonpayable",
      "type": "function"
    },
    {
      "constant": false,
      "inputs": [
        {
          "internalType": "contract LightGeneralizedTCR",
          "name": "_gtcr",
          "type": "address"
        },
        {
          "internalType": "bytes32",
          "name": "_itemID",
          "type": "bytes32"
        }
      ],
      "name": "remove",
      "outputs": [],
      "payable": false,
      "stateMutability": "nonpayable",
      "type": "function"
    }
  ],
  "bytecode": "0x608060405234801561001057600080fd5b50610211806100206000396000f3fe608060405234801561001057600080fd5b50600436106100365760003560e01c806336d6da551461003b57806364afab72146100bd575b600080fd5b6100bb6004803603604081101561005157600080fd5b6001600160a01b03823516919081019060408101602082013564010000000081111561007c57600080fd5b82018360208201111561008e57600080fd5b803590602001918460018302840111640100000000831117156100b057600080fd5b5090925090506100e9565b005b6100bb600480360360408110156100d357600080fd5b506001600160a01b03813516906020013561017a565b604051638545c6a560e01b8152602060048201908152602482018390526001600160a01b03851691638545c6a59185918591908190604401848480828437600081840152601f19601f8201169050808301925050509350505050600060405180830381600087803b15801561015d57600080fd5b505af1158015610171573d6000803e3d6000fd5b50505050505050565b816001600160a01b03166341e57c06826040518263ffffffff1660e01b815260040180828152602001915050600060405180830381600087803b1580156101c057600080fd5b505af11580156101d4573d6000803e3d6000fd5b50505050505056fea265627a7a72315820c211bacc8f19fee4ab51234a02108ae9c4e3feb8b7af2c355b4930d49470e05864736f6c63430005110032",
  "linkReferences": {},
  "deployedLinkReferences": {}
}